:020000040000FA
:100000000C945D000C9485000C9485000C94850084
:100010000C9485000C9485000C9485000C9485004C
:100020000C9485000C9485000C9485000C9485003C
:100030000C9485000C9485000C9485000C9485002C
:100040000C9476030C9485000C9444030C941E03CA
:100050000C9485000C9485000C9485000C9485000C
:100060000C9485000C9485000000000024002700FB
:100070002A0000000000250028002B0004040404CE
:100080000404040402020202020203030303030342
:10009000010204081020408001020408102001021F
:1000A00004081020000000080002010000030407FB
:1000B0000000000000000000560411241FBECFEF16
:1000C000D8E0DEBFCDBF11E0A0E0B1E0E6E1F9E0AD
:1000D00002C005900D92A834B107D9F721E0A8E439
:1000E000B1E001C01D92AF3EB207E1F710E0CDE5EF
:1000F000D0E004C02197FE010E948304CC35D107D3
:10010000C9F70E94C0030C9489040C940000AF92BC
:10011000BF92CF92DF92EF92FF920F931F93CF93F4
:10012000DF936C017B018B01040F151FEB015E0156
:10013000AE18BF08C017D10759F06991D601ED91EB
:10014000FC910190F081E02DC6010995892B79F78A
:10015000C501DF91CF911F910F91FF90EF90DF903C
:10016000CF90BF90AF900895FC01538D448D252F03
:1001700030E0842F90E0821B930B541710F0CF9641
:10018000089501970895FC01918D828D981761F073
:10019000A28DAE0FBF2FB11D5D968C91928D9F5F8A
:1001A0009F73928F90E008958FEF9FEF0895FC0169
:1001B000918D828D981731F0828DE80FF11D858D1C
:1001C00090E008958FEF9FEF0895FC01918D228DAF
:1001D000892F90E0805C9F4F821B91098F73992734
:1001E000089582E591E00E94E50021E0892B09F461
:1001F00020E0822F089580E090E0892B29F00E9472
:10020000F10081110C9400000895FC01A48DA80F49
:10021000B92FB11DA35ABF4F2C91848D90E0019648
:100220008F739927848FA689B7892C93A089B18968
:100230008C91837080648C93938D848D981306C009
:100240000288F389E02D80818F7D80830895EF926D
:10025000FF920F931F93CF93DF93EC0181E0888F80
:100260009B8D8C8D98131AC0E889F989808185FF50
:1002700015C09FB7F894EE89FF896083E889F989F2
:1002800080818370806480839FBF81E090E0DF91F4
:10029000CF911F910F91FF90EF900895F62E0B8D47
:1002A00010E00F5F1F4F0F731127E02E8C8D8E1102
:1002B0000CC00FB607FCFACFE889F989808185FF69
:1002C000F5CFCE010E940501F1CFEB8DEC0FFD2F94
:1002D000F11DE35AFF4FF0829FB7F8940B8FEA8924
:1002E000FB8980818062CFCFCF93DF93EC01888D33
:1002F0008823B9F0AA89BB89E889F9898C9185FDA1
:1003000003C0808186FD0DC00FB607FCF7CF8C912E
:1003100085FFF2CF808185FFEDCFCE010E940501E0
:10032000E9CFDF91CF91089590E0FC01EC55FF4FAC
:100330002491FC01E057FF4F3491FC01E458FF4F3A
:10034000E491EE23C9F0222339F0233001F1A8F41F
:10035000213019F1223029F1F0E0EE0FFF1FEE58A5
:10036000FF4FA591B4918FB7F894EC91611126C01D
:1003700030953E233C938FBF08952730A9F0283055
:10038000C9F0243049F7809180008F7D03C08091AF
:1003900080008F7780938000DFCF84B58F7784BD16
:1003A000DBCF84B58F7DFBCF8091B0008F778093BA
:1003B000B000D2CF8091B0008F7DF9CF3E2BDACF45
:1003C000CF93DF9390E0FC01E057FF4F24918458D6
:1003D0009F4FFC0184918823D1F090E0880F991FF2
:1003E000FC01E859FF4FA591B491FC01EE58FF4F75
:1003F000C591D49161110EC09FB7F8948C91E22FF2
:10040000E0958E238C932881E223E8839FBFDF91C0
:10041000CF9108958FB7F894EC91E22BEC938FBFB6
:10042000F6CF8E3008F08E508770806480937C0009
:1004300080917A00806480937A0080917A0086FDB2
:10044000FCCF809178009091790008953FB7F8949F
:1004500080914E0190914F01A0915001B0915101B6
:1004600026B5A89B05C02F3F19F00196A11DB11D0F
:100470003FBFBA2FA92F982F8827BC01CD01620F4B
:10048000711D811D911D42E0660F771F881F991F06
:100490004A95D1F708958F929F92AF92BF92CF92D3
:1004A000DF92EF92FF926B017C010E9426024B01CA
:1004B0005C01C114D104E104F104B9F00E942602E8
:1004C000681979098A099B09683E7340810591057D
:1004D00080F321E0C21AD108E108F10888EE880E05
:1004E00083E0981EA11CB11CE4CFFF90EF90DF9039
:1004F000CF90BF90AF909F908F900895CF93DF9350
:10050000FC0101900020E9F73197AF01481B590B1E
:10051000BC0182E591E00E948700EC0142E050E0DE
:1005200062E171E082E591E00E9487008C0F9D1FDF
:10053000DF91CF9108950F931F93CF93909148012E
:100540009817B1F0C82F8130E1F0B0F0823099F106
:10055000833009F455C0C09348018FB7F894409197
:100560004A0150914B0160914C0170914D018FBF38
:10057000CF911F910F91089585E191E00E947E0235
:10058000EACF83E291E00E947E028EE00E94110297
:1005900089359240B4F38EE00E941102803293407C
:1005A00084F78EE00E94110281329340D4F382E0FE
:1005B0000E949B02D0CF81E391E00E947E028EE0F8
:1005C0000E941102893592406CF48EE00E94110263
:1005D000CD978CF38EE00E941102883C91055CF768
:1005E00083E0E6CF8EE00E941102803293406CF7E8
:1005F0008EE00E94110281329340D4F381E0D8CF83
:100600008CE391E00E947E0200EA1FE060E08DE052
:100610000E94940165E070E080E090E00E944B024F
:1006200061E08DE00E94940165E070E080E090E080
:100630000E944B020150110949F7B9CF1F920F9246
:100640000FB60F9211242F933F934F935F936F93A5
:100650007F938F939F93AF93BF93EF93FF9382E525
:1006600091E00E940501FF91EF91BF91AF919F91A1
:100670008F917F916F915F914F913F912F910F904B
:100680000FBE0F901F9018951F920F920FB60F92EA
:1006900011242F938F939F93EF93FF93E091620127
:1006A000F09163018081E0916801F091690182FD20
:1006B0001BC0908180916B018F5F8F7320916C01C3
:1006C000821741F0E0916B01F0E0EE5AFE4F958FFA
:1006D00080936B01FF91EF919F918F912F910F90DC
:1006E0000FBE0F901F9018958081F4CF1F920F922C
:1006F0000FB60F9211242F933F938F939F93AF9335
:10070000BF9380914A0190914B01A0914C01B0910F
:100710004D013091490123E0230F2D3758F5019603
:10072000A11DB11D2093490180934A0190934B0173
:10073000A0934C01B0934D0180914E0190914F01D7
:10074000A0915001B09151010196A11DB11D80935E
:100750004E0190934F01A0935001B0935101BF916E
:10076000AF919F918F913F912F910F900FBE0F905E
:100770001F90189526E8230F0296A11DB11DD2CF18
:10078000789484B5826084BD84B5816084BD85B56C
:10079000826085BD85B5816085BD80916E00816078
:1007A00080936E001092810080918100826080931E
:1007B0008100809181008160809381008091800020
:1007C0008160809380008091B10084608093B1004B
:1007D0008091B00081608093B00080917A00846045
:1007E00080937A0080917A00826080937A00809171
:1007F0007A00816080937A0080917A00806880938B
:100800007A001092C100E0916201F091630182E0F0
:100810008083E0915E01F0915F011082E0916001C0
:10082000F09161018FEC808310926A01E091660182
:10083000F091670186E08083E0916401F0916501A9
:10084000808180618083E0916401F0916501808105
:1008500088608083E0916401F09165018081806807
:100860008083E0916401F091650180818F7D8083B8
:1008700060E082E00E94E00161E08DE00E94E00122
:1008800060E08EE00E94E00161E08DE00E94940152
:1008900081E00E949B02C0E0D0E02097F1F30E942B
:1008A000F1008823D1F30E940000F7CFE2E5F1E0E8
:1008B0001382128288EE93E0A0E0B0E084839583F7
:1008C000A683B78384E091E09183808385EC90E0F8
:1008D0009587848784EC90E09787868780EC90E00A
:1008E000918B808B81EC90E0938B828B82EC90E0FB
:1008F000958B848B86EC90E0978B868B118E128E75
:10090000138E148E0895EE0FFF1F0590F491E02DC5
:100910000994F894FFCF0000000027018700B4007D
:100920007401E500C300D7000D0A0053544154453B
:100930005F535441525455500053544154455F53F2
:10094000455454494E470053544154455F49444C23
:0E095000450053544154455F50554C534500EB
:107E0000112484B714BE81FFF0D085E080938100F7
:107E100082E08093C00088E18093C10086E0809377
:107E2000C20080E18093C4008EE0C9D0259A86E02C
:107E300020E33CEF91E0309385002093840096BBD3
:107E4000B09BFECF1D9AA8958150A9F7CC24DD24C4
:107E500088248394B5E0AB2EA1E19A2EF3E0BF2EE7
:107E6000A2D0813461F49FD0082FAFD0023811F036
:107E7000013811F484E001C083E08DD089C08234E0
:107E800011F484E103C0853419F485E0A6D080C0E4
:107E9000853579F488D0E82EFF2485D0082F10E0AE
:107EA000102F00270E291F29000F111F8ED06801E7
:107EB0006FC0863521F484E090D080E0DECF843638
:107EC00009F040C070D06FD0082F6DD080E0C81688
:107ED00080E7D80618F4F601B7BEE895C0E0D1E017
:107EE00062D089930C17E1F7F0E0CF16F0E7DF06D8
:107EF00018F0F601B7BEE89568D007B600FCFDCFD4
:107F0000A601A0E0B1E02C9130E011968C91119780
:107F100090E0982F8827822B932B1296FA010C0160
:107F200087BEE89511244E5F5F4FF1E0A038BF0790
:107F300051F7F601A7BEE89507B600FCFDCF97BE46
:107F4000E89526C08437B1F42ED02DD0F82E2BD052
:107F50003CD0F601EF2C8F010F5F1F4F84911BD097
:107F6000EA94F801C1F70894C11CD11CFA94CF0C13
:107F7000D11C0EC0853739F428D08EE10CD085E9AC
:107F80000AD08FE07ACF813511F488E018D01DD067
:107F900080E101D065CF982F8091C00085FFFCCF94
:107FA0009093C60008958091C00087FFFCCF809118
:107FB000C00084FD01C0A8958091C6000895E0E648
:107FC000F0E098E1908380830895EDDF803219F02E
:107FD00088E0F5DFFFCF84E1DECF1F93182FE3DFCA
:107FE0001150E9F7F2DF1F91089580E0E8DFEE27F6
:047FF000FF270994CA
:027FFE00040479
:00000001FF
