:100000000C9463000C94940E0C946D0E0C948B0065
:100010000C948B000C948B000C948B000C948B0034
:100020000C948B000C948B000C948B000C948B0024
:100030000C948B000C948B000C948B000C948B0014
:100040000C94230E0C948B000C94F10D0C94CB0D9E
:100050000C948B000C948B000C948B000C948B00F4
:100060000C94BB0E0C948B000000000024002700B1
:100070002A0000000000250028002B0000000000DE
:1000800023002600290004040404040404040202DA
:100090000202020203030303030301020408102007
:1000A0004080010204081020010204081020000012
:1000B0000008000201000003040700000000000027
:1000C0000000DA0F941211241FBECFEFD8E0DEBF7C
:1000D000CDBF24E0AEE9B1E001C01D92A131B2076D
:1000E000E1F711E0A0E0B1E0EAE0F0E302C0059042
:1000F0000D92AE39B107D9F710E0C2E6D0E004C0E6
:100100002197FE010E94E515C136D107C9F70E946B
:1001100045100C94F8170C940000F89489B18C7079
:100120008093A0018091A0018C30E9F480919E0120
:100130008823C9F08091720290917302A091740299
:10014000B09175020197A109B10980937202909351
:100150007302A0937402B093750210929F011092E3
:100160009E01789408958091A0018430D1F781E0B8
:1001700080939F01F6CFF89489B18C708093A00191
:100180008091A0018C30E9F480919F018823C9F00F
:100190008091720290917302A0917402B0917502E5
:1001A0000196A11DB11D8093720290937302A093DA
:1001B0007402B093750210929F0110929E01789480
:1001C00008958091A0018830D1F781E080939E014D
:1001D000F6CF08950895AF92BF92CF92DF92EF923B
:1001E000FF920F931F93CF93DF936C017B018B01E1
:1001F000040F151FEB015E01AE18BF08C017D10731
:1002000059F06991D601ED91FC910190F081E02DBA
:10021000C6010995892B79F7C501DF91CF911F910F
:100220000F91FF90EF90DF90CF90BF90AF90089527
:10023000FC01448155816081718181E094E00C94DE
:10024000EB00FC01538D448D252F30E0842F90E08E
:10025000821B930B541710F0CF96089501970895C1
:10026000FC01918D828D981761F0A28DAE0FBF2F8A
:10027000B11D5D968C91928D9F5F9F73928F90E0E0
:1002800008958FEF9FEF0895FC01918D828D98174F
:1002900031F0828DE80FF11D858D90E008958FEF8C
:1002A0009FEF0895FC01918D228D892F90E0805C55
:1002B0009F4F821B91098F73992708958AE792E0D7
:1002C0000E94520121E0892B09F420E0822F089539
:1002D00080E090E0892B29F00E945E0181110C944E
:1002E00000000895FC01A48DA80FB92FB11DA35AD9
:1002F000BF4F2C91848D90E001968F739927848F46
:10030000A689B7892C93A089B1898C918370806468
:100310008C93938D848D981306C00288F389E02D09
:1003200080818F7D80830895EF92FF920F931F93BA
:10033000CF93DF93EC0181E0888F9B8D8C8D981398
:100340001AC0E889F989808185FF15C09FB7F894A4
:10035000EE89FF896083E889F989808183708064F0
:1003600080839FBF81E090E0DF91CF911F910F913B
:10037000FF90EF900895F62E0B8D10E00F5F1F4F4A
:100380000F731127E02E8C8D8E110CC00FB607FC59
:10039000FACFE889F989808185FFF5CFCE010E94E7
:1003A0007201F1CFEB8DEC0FFD2FF11DE35AFF4FE2
:1003B000F0829FB7F8940B8FEA89FB898081806275
:1003C000CFCFCF93DF93EC01888D8823B9F0AA8932
:1003D000BB89E889F9898C9185FD03C0808186FD00
:1003E0000DC00FB607FCF7CF8C9185FFF2CF80814F
:1003F00085FFEDCFCE010E947201E9CFDF91CF9151
:100400000895833081F028F4813099F08230A9F08A
:1004100008958730A9F08830C9F08430B1F4809114
:1004200080008F7D03C0809180008F778093800053
:10043000089584B58F7784BD089584B58F7DFBCFF3
:100440008091B0008F778093B00008958091B000C4
:100450008F7DF9CFCF93DF93282F30E0F901E2555C
:10046000FF4F8491F901E656FF4FD491F901EA5705
:10047000FF4FC491CC23A1F081110E940102EC2F07
:10048000F0E0EE0FFF1FE458FF4FA591B491EC91FF
:10049000ED2381E090E009F480E0DF91CF910895B1
:1004A00080E090E0FACF1F93CF93DF93282F30E0C6
:1004B000F901E255FF4F8491F901E656FF4FD491BF
:1004C000F901EA57FF4FC491CC23A9F0162F8111EF
:1004D0000E940102EC2FF0E0EE0FFF1FEE58FF4FDD
:1004E000A591B4918FB7F894EC91111108C0D095F3
:1004F000DE23DC938FBFDF91CF911F910895DE2B18
:10050000F8CFCF93DF9390E0FC01E656FF4F2491A4
:100510008A579F4FFC0184918823D1F090E0880F87
:10052000991FFC01E859FF4FA591B491FC01EE58C9
:10053000FF4FC591D491623071F49FB7F8943C910C
:10054000822F809583238C93E8812E2B28839FBF55
:10055000DF91CF9108958FB7F894EC912E2B2C93C7
:100560008FBFF6CF3FB7F8948091600290916102FF
:10057000A0916202B091630226B5A89B05C02F3FEF
:1005800019F00196A11DB11D3FBFBA2FA92F982FB9
:100590008827BC01CD01620F711D811D911D42E0B4
:1005A000660F771F881F991F4A95D1F708958F927C
:1005B0009F92AF92BF92CF92DF92EF92FF924B0148
:1005C0005C010E94B2026B017C010E94B2026C19B4
:1005D0007D098E099F09683E734081059105A8F346
:1005E00021E0821A9108A108B10888EEC80E83E0C4
:1005F000D81EE11CF11C81149104A104B10429F757
:10060000FF90EF90DF90CF90BF90AF909F908F9032
:1006100008950895CF93DF93FC012381222359F19C
:10062000EC0161E084810E94810261E08D810E9481
:1006300081028B81843011F08830B1F461E08E81C9
:100640000E94810261E08F810E9481028FA58F3F0D
:1006500091F061E00E9481026EA581E068278FA57C
:10066000DF91CF910C945302833011F0863071F7F3
:1006700061E08E81E9CFDF91CF910895CF93DF9331
:10068000FC0123812223A9F0EC010190F081E02DEF
:100690000480F581E02D60E009958FA58F3F49F03A
:1006A00061E00E9481026EA58FA5DF91CF910C942D
:1006B0005302DF91CF910895DC01ED91FC912481EB
:1006C00035814770552766277727415051096109C1
:1006D0007109473051056105710560F4FA01ED5863
:1006E000FC4F0C94E5157D037F0381038303850391
:1006F0008703890361E0F901099465E0FCCF64E0B8
:10070000FACF66E0F8CF62E0F6CF6AE0F4CF68E0B7
:10071000F2CF69E0F0CFCF93DF93EC01CB01BA01C8
:1007200026E030E040E050E00E94C61562307105DE
:100730008105910589F16CF46115710581059105BB
:10074000D1F06130710581059105F9F0DF91CF910C
:100750000895643071058105910561F124F16530DA
:1007600071058105910591F7E881F9810480F58192
:10077000E02D66E006C0E881F9810480F581E02D76
:1007800064E0CE01DF91CF910994E881F981048082
:10079000F581E02D65E0F5CFE881F9810480F581F0
:1007A000E02D61E0EECFE881F9810480F581E02D54
:1007B00063E0E7CFE881F9810480F581E02D62E014
:1007C000E0CFDC01ED91FC910480F581E02D4370D8
:1007D000552766277727423051056105710571F06D
:1007E000433051056105710559F0413051056105EE
:1007F000710511F065E0099466E0FDCF6AE0FBCF7A
:1008000069E0F9CFCF93DF93EC01CB01BA0123E08C
:1008100030E040E050E00E94C6156130710581056E
:10082000910599F06230710581059105A9F0672B5A
:10083000682B692BC1F4E881F9810480F581E02DF2
:1008400064E0CE01DF91CF910994E881F9810480C1
:10085000F581E02D61E0F5CFE881F9810480F58133
:10086000E02D62E0EECFDF91CF910895DC01ED91B4
:10087000FC910480F581E02D43705527662777278A
:10088000423051056105710571F043305105610534
:10089000710559F0413051056105710511F062E0B3
:1008A000099463E0FDCF61E0FBCF60E0F9CFCF9327
:1008B000DF93EC01E881F9810480F581E02D8A81E4
:1008C00060E0811162E0CE010995E881F981048040
:1008D000F581E02D8A8161E0811163E0CE01099507
:1008E0008CA59DA58230910538F0880F991F880F3F
:1008F000991F05970197F1F7E881F9810480F58147
:10090000E02D8A8160E0811162E0CE01DF91CF911C
:100910000994CF93DF93EC0120E030E0A9016C89CA
:100920007D898E899F890E94301518162CF4E8A9BC
:10093000F9A9DF91CF910994EAA9FBA9FACFCF9247
:10094000DF92EF92FF920F931F93CF93DF93DC011F
:100950001396CC91C43039F0C83059F1C33019F036
:10096000C63049F1C2E08C010C5F1F4FF12CE12C25
:10097000C62ED12CD1E0F8016481C6010E2C02C034
:10098000959587950A94E2F780FD6D270F5F1F4FBD
:1009900080810E945302BFEFEB1AFB0AEC1658F35A
:1009A000DF91CF911F910F91FF90EF90DF90CF904B
:1009B0000895C4E0D8CFC3E0D6CFDC011396EC9104
:1009C0001397E93008F038C0F0E0E751FB4F0C9482
:1009D000E515F204F804FE0404050A051C051005DB
:1009E0001C051605ED91FC910084F185E02D09941C
:1009F000ED91FC910284F385E02DF9CFED91FC910E
:100A00000484F585E02DF3CFED91FC910684F78504
:100A1000E02DEDCFED91FC910088F189E02DE7CF3D
:100A2000ED91FC910288F389E02DE1CFED91FC91ED
:100A30000488F589E02DDBCF08954F925F926F9285
:100A40007F928F929F92AF92BF92CF92DF92EF925E
:100A5000FF920F931F93CF93DF93EC01C888D9883F
:100A6000EA88FB888C859D85AE85BF85C81AD90A22
:100A7000EA0AFB0A6C897D898E899F899B01AC01FA
:100A80000E940C134B015C016C8D7D8D8E8D9F8DB2
:100A90009B01AC010E941C149B01AC01C501B40177
:100AA0000E9488140E94FA14C114D104E104F104D4
:100AB00009F0B1C062307105810591050CF0CBC021
:100AC0001CA21DA21EA21FA21C8A1D8A1E8A1F8A8A
:100AD0001CAA1DAA1EAA1FAADF91CF911F910F91D8
:100AE000FF90EF90DF90CF90BF90AF909F908F904E
:100AF0007F906F905F904F90089510161106120628
:100B00001306B4F46C157D058E059F051CF42A812F
:100B10002111A1C09B01AC0188279927DC01821B10
:100B2000930BA40BB50B8CAB9DABAEABBFAB93C023
:100B3000011511052105310509F48DC06C157D05E0
:100B40008E059F050CF087C08A81882309F483C035
:100B500030952095109501951F4F2F4F3F4F0CABAF
:100B60001DAB2EAB3FAB77C001151105210531053B
:100B700009F471C08824992454018C189D08AE088A
:100B8000BF08681579058A059B050CF064C08A8149
:100B9000811161C0DDCFCCACDDACEEACFFACA70108
:100BA0009601C701B6010E941C142B013C01C5012E
:100BB000B4010E94AD1220E030E040E850E40E9411
:100BC0000C1320E030E040E85FE30E941C149B011E
:100BD000AC01C301B2010E9488149B01AC01C701A2
:100BE000B6010E941B143B016C01FE01E05CFF4F4B
:100BF000E080F180028113819701A8010E943015E5
:100C0000181614F473018601C701D8018CAF9DAF8B
:100C1000AEAFBFAF3AC00CA91DA92EA93FA91C14A5
:100C20001D041E041F040CF468CF101611061206D2
:100C300013060CF099CF0027112798010C191D09F4
:100C40002E093F0960177107820793070CF062CFE6
:100C50002A8121115FCF8CA89DA8AEA8BFA88114BE
:100C60009104A104B10409F096CF88AD99ADAAAD65
:100C7000BBAD8CAF9DAFAEAFBFAF81E01C141D0408
:100C80001E041F040CF080E08A833FEF831A930A4E
:100C9000A30AB30A8CAA9DAAAEAABFAACCACDDACAB
:100CA000EEACFFACC701B6010E9401156CA37DA399
:100CB0008EA39FA3A701960160E074E284E799E404
:100CC0000E9488146C8B7D8B8E8B9F8B2A812111C7
:100CD00003CF90586C8B7D8B8E8B9F8BFDCE0895B0
:100CE0002091EE01260F3327331F21323105ECF41A
:100CF00020913702FC0190E080E0243069F082E02E
:100D00000895A091EE012191AC0142535E4FA40FD2
:100D1000B52FB11D2C930196861798F38091EE01A3
:100D2000680F6093EE0180E0089581E008951092CD
:100D3000370281E0809336021092110261E082E175
:100D40000E94530261E083E10E945302E9EBF0E06C
:100D500080818E7F808380818D7F808388E48093F3
:100D6000B80085E48093BC000895CF93DF9391E0B1
:100D70009093CD018823B9F0C091B800D091BA000A
:100D80008091BC008A7B8093BC0060E082E10E947D
:100D9000530260E083E10E9453020E949706D093C1
:100DA000BA00C093B800DF91CF9108950895E09103
:100DB0006B0280916A02E81730F4F0E0E355FE4FD1
:100DC000808190E008958FEF9FEF089590916B02DE
:100DD00080916A022FEF3FEF981748F4E92FF0E077
:100DE000E355FE4F208130E09F5F90936B02C90175
:100DF000089580916A0290916B02891B990B089566
:100E0000CF92DF92EF92FF920F931F93CF93DF93D6
:100E10007C01CB018A0120913D02222389F0EB0164
:100E20006B01C40ED51ECC15DD0569F06991D701A3
:100E3000ED91FC910190F081E02DC7010995F3CF70
:100E4000642F0E947006C801DF91CF911F910F910E
:100E5000FF90EF90DF90CF900895CF93DF931F9294
:100E6000CDB7DEB7698320913D022223F9F02091AE
:100E70006802203258F021E030E0FC013383228305
:100E800090E080E00F90DF91CF910895809169020A
:100E9000E82FF0E0E25CFD4F998190838F5F8093B3
:100EA00069028093680281E090E0ECCF61E0CE01BE
:100EB00001960E947006F7CFCF92DF92EF92FF92D9
:100EC0000F931F93CF93DF93FC01C48121E0209304
:100ED0003D02C0935E0210926902109268028385FF
:100EE000682B87E193E00E942D07D0916802D132F0
:100EF00008F092C00E94B2026B017C01809137021F
:100F0000811165C082E08093370281E080933602D0
:100F10008FEF8093350210923402D0933302AEE308
:100F2000B2E0E3E1F2E080E0D81385C01092120253
:100F300080911202CC0FC82BC09312028091110233
:100F4000813009F07CC0109211020E94B2026B0144
:100F50007C01809112028093BB00809139029091B4
:100F60003A02A0913B02B0913C02892B8A2B8B2B39
:100F700099F00E94B2020091390210913A02209138
:100F80003B0230913C026C197D098E099F090617BE
:100F9000170728073907E0F18091BC0083FDD9CFFE
:100FA00085EC8093BC000E94B2026B017C018091B1
:100FB0003702823009F445C0809135028F3F61F1DC
:100FC00080913502803241F18091350225C08091B7
:100FD000390290913A02A0913B02B0913C02892BD8
:100FE0008A2B8B2B09F48ACF0E94B202009139021E
:100FF00010913A0220913B0230913C026C197D091C
:101000008E099F09061717072807390708F076CFBA
:10101000809138020E94B50610926902109268020F
:1010200010923D02DF91CF911F910F91FF90EF90B1
:10103000DF90CF9008959D9191938F5F75CF85EE4E
:10104000B0CF8091390290913A02A0913B02B091C9
:101050003C02892B8A2B8B2B09F4A9CF0E94B20268
:101060000091390210913A0220913B0230913C02EA
:101070006C197D098E099F0906171707280739077C
:1010800008F095CFC5CF90E080E0089551E040E0B2
:10109000181619060CF450E0252F342FEAE0F0E082
:1010A000009739F02F5F3F4FBF010E949015CB0191
:1010B000F7CFC9010895FC01DB018CE191E0918338
:1010C000808312968C911297828313968C9113973A
:1010D000838314964D915D916D917C911797448314
:1010E00055836683778318964D915D916D917C91C0
:1010F0001B9740875187628773871C964D915D913E
:101100006D917C911F9744875587668777875096A6
:101110004D915D916D917C915397408B518B628B7A
:10112000738B54964D915D916D917C915797448B43
:10113000558B668B778B58964D915D916D917C9117
:101140005B97408F518F628F738F5C964D915D914D
:101150006D917C915F97448F558F668F778F9096B6
:101160004D915D916D917C91939740A351A362A3A2
:1011700073A394964D915D916D917C91979744A343
:1011800055A366A377A398964D915D916D917C913F
:101190009B9740A751A762A773A79C968D919C919E
:1011A0009D9795A784A79E968C919E9786A79F96BC
:1011B0008C919F9787A7D0968D919C91D19791AB59
:1011C00080ABD2968D919C91D39793AB82ABD49602
:1011D0004D915D916D917C91D79744AB55AB66ABCA
:1011E00077ABD8964D915D916D917C91DB9740AF37
:1011F00051AF62AF73AFDC964D915D916D917C9173
:10120000DF9744AF55AF66AF77AFA05CBF4F8D910E
:101210009D910D90BC91A02DE05CFF4F8083918348
:10122000A283B38308950F931F93CF938C01C62F8E
:101230000E945C076C2F6460C8010E945C076C2FE1
:101240006B7FC8010E945C0783EC90E00197F1F787
:10125000CF911F910F9108950F931F93CF93DF9319
:101260008C01D62FC42F607F642B0E94130980E16C
:10127000D89FB00111246C2BC801DF91CF911F9131
:101280000F910C94130941E00E942C0981E090E039
:101290000895CF93DF93CDB7DEB728970FB6F894B4
:1012A000DEBF0FBECDBF98E0E0E1F1E0DE011196B8
:1012B00001900D929A95E1F790910904961708F420
:1012C0006FEF262F30E0220F331F41E050E04C0F2C
:1012D0005D1F240F351FF9016081680F606840E0D1
:1012E00081E094E028960FB6F894DEBF0FBECDBF24
:1012F000DF91CF910C942C0940E061E081E094E013
:101300000E942C098BE39FE10197F1F70895FB01FF
:1013100001900020E9F73197AF01461B570BDC0124
:10132000ED91FC910280F381E02D0994CF92DF9240
:10133000EF92FF920F931F93CF93DF93CDB7DEB75A
:10134000A1970FB6F894DEBF0FBECDBF6B017C0135
:10135000F7FE3EC041E06DE281E094E00E942C097E
:1013600022273327A9012C193D094E095F0919A22B
:101370008E010F5D1F4F9AE0C92ED12CE12CF12C6C
:10138000CA01B901A70196010E94A415605DF80188
:1013900062938F01211531054105510589F790E0D0
:1013A00080E0309729F0BF0181E094E00E94870936
:1013B0000196A1960FB6F894DEBF0FBECDBFDF91A8
:1013C000CF911F910F91FF90EF90DF90CF900895F4
:1013D000AC019B0119A28E010F5D1F4F8AE0C82E40
:1013E000D12CE12CF12CCA01B901A70196010E9470
:1013F000A415605DF80162938F0121153105410547
:10140000510589F790E080E0309799F2BF0181E0C3
:1014100094E00E948709CDCFBC01990F880B990BEE
:101420000C949609CF93DF93EC010E947C0960E055
:1014300080E00E94490962E671E081E094E00E9448
:10144000870961E081E00E94490926E02C9FC001E4
:101450002D9F900D11248D5D9C4F0E941801CC0F83
:10146000DD1FCC5FDE4F0990D881C02DCE010E94D8
:10147000460861E090E1981B892F0E944909CE013E
:10148000DF91CF910C940C0A4F925F926F927F92F2
:10149000AF92BF92CF92DF92EF92FF920F931F9382
:1014A000CF93DF93EC0186E08C9F60018D9FD00C81
:1014B0001124C6018D5D9C4F5C017E01EE0CFF1C6A
:1014C0008E01000F111F000F111FC0FF7BC00E9473
:1014D0007C0960E081E00E9449092197C601835E92
:1014E0009C4F0E941801FE01EE0FFF1FEC5FFE4FA4
:1014F00060807180C3010E94460859E0D52E60E0EB
:101500009D2D981B892F0E944909C3010E940C0A36
:10151000CC0FDD1FCC0FDD1FCF55DE4F488059802B
:101520006A807B80C2010E944608C0E160E09C2F77
:10153000981B892F0E944909C301B2010E94960994
:1015400061E080E00E94490968E671E081E094E092
:101550000E94870961E081E00E944909C5010E945B
:101560001801F701EC5FFE4FE080F180C7010E9497
:10157000460861E0D81A8D2D0E944909C7010E94D2
:101580000C0AF801EF55FE4FC080D180E280F38055
:10159000C6010E94460861E0C81B8C2F0E944909C1
:1015A000C701B601DF91CF911F910F91FF90EF908E
:1015B000DF90CF90BF90AF907F906F905F904F90F3
:1015C0000C949609C230D1050CF068C00E947C09C9
:1015D00060E080E00E94490968E671E081E094E003
:1015E0000E94870960E081E00E944909C5010E94CC
:1015F0001801F701EC5FFE4FE080F180C7010E9407
:10160000460899E0B92E60E09B2D981B892F0E9417
:101610004909C7010E940C0AF801EF55FE4F4080AE
:10162000518062807380C2010E94460810E160E030
:10163000912F981B892F0E944909C301B2010E9472
:10164000960961E081E00E9449092196C601875D03
:101650009C4F0E941801FE01EE0FFF1FEC5FFE4F32
:10166000E080F180C7010E94460861E0B81A8B2D26
:101670000E944909C7010E940C0ACC0FDD1FCC0F44
:10168000DD1FCF55DE4FC880D980EA80FB80C601C0
:101690000E94460861E0181B812F80CF0E947C09C0
:1016A00060E080E00E94490968E671E081E094E032
:1016B0000E94870960E081E00E944909C5010E94FB
:1016C0001801F701EC5FFE4FC081D181CE010E946D
:1016D000460860E099E0981B892F0E944909CE01D5
:1016E0000E940C0AF801EF55FE4FC080D180E280C5
:1016F000F380C6010E94460860E090E1981B892FA4
:101700004DCFEF92FF920F931F93CF93DF93EC0196
:101710007B01198218821B821A821D821C82FB01A6
:1017200001900020E9F731978F01061B170BB801D4
:101730006F5F7F4F90E080E00E942B170097B9F019
:10174000998388831B830A832C813D81232B11F489
:10175000FC0110821D830C83B70188819981DF9180
:10176000CF911F910F91FF90EF900C94F11788810A
:101770009981009711F00E94A216198218821D8289
:101780001C821B821A82DF91CF911F910F91FF90D3
:10179000EF9008954F925F926F927F928F929F92F7
:1017A000AF92BF92CF92DF92EF92FF92CF93DF93EF
:1017B000EC016A017B0120E030E0A901CB01B60118
:1017C0000E94A61287FF04C0F7FAF094F7F8F0948D
:1017D0008C8C9D8CAE8CBF8CA7019601C501B40189
:1017E0000E94A612882309F449C06CA97DA98EA97C
:1017F0009FA90E94AD122B013C01A7019601C501D2
:10180000B4010E9488149B01AC01C301B2010E9483
:101810000C130E94FA146CAB7DAB8EAB9FABA7018F
:10182000960160E070E080E090E40E9488140E94DD
:101830003B1526E53EE04DE25FE30E940C1320E0FD
:1018400034E244E759E40E940C1368AF79AF8AAFE1
:101850009BAFCC8EDD8EEE8EFF8ECE01DF91CF91D1
:10186000FF90EF90DF90CF90BF90AF909F908F90C0
:101870007F906F905F904F900C941D05DF91CF91FA
:10188000FF90EF90DF90CF90BF90AF909F908F90A0
:101890007F906F905F904F900895CF93DF93EC010E
:1018A0008CE191E09983888381E08B831C861D867F
:1018B0001E861F86188A198A1A8A1B8A1C8A1D8A04
:1018C0001E8A1F8A80E090E0A0E8BFE3888F998F8E
:1018D000AA8FBB8F1C8E1D8E1E8E1F8E88A399A370
:1018E000AAA3BBA31CA21DA21EA21FA221E030E03E
:1018F0003DA72CA72FEF2FA718A619A61AA61BA63F
:101900006C834D8324E02E8325E02F831EA61CAA22
:101910001DAA1EAA1FAA18AE19AE1AAE1BAE1CAE87
:101920001DAE1EAE1FAEFE01E05CFF4F80839183B3
:10193000A283B3831A82188619861A861B86CE0163
:101940000E940A0340E050E060E87FE3CE01DF91AF
:10195000CF910C94CA0BCF92DF92EF92FF92CF936C
:10196000DF93EC014091700250917102FA01EE0F89
:10197000FF1FEC5FFE4FA081B18128EC30E00E9498
:10198000EB156B017C01440F551F440F551FFA01E5
:10199000EF55FE4F2081318142815381A8ECB0E0A8
:1019A0000E94CA136C877D878E879F87688B798B8F
:1019B0008A8B9B8B1CAA1DAA1EAA1FAA1CA21DA251
:1019C0001EA21FA21C8A1D8A1E8A1F8A20E030E0E8
:1019D0004AEF53E4688D798D8A8D9B8D0E94A61203
:1019E000882399F080E090E0AAEFB3E4888F998F84
:1019F000AA8FBB8F80E090E0AAEFB4E4FE01E05C28
:101A0000FF4F80839183A283B38340E050E068EC72
:101A100072E4CE010E94CA0B88899989AA89BB8980
:101A2000C816D906EA06FB0639F0C88AD98AEA8AB6
:101A3000FB8ACE010E941D058CA19DA1AEA1BFA174
:101A4000892B8A2B8B2BA1F10E94B2026B017C01A6
:101A500088A599A5AAA5BBA5B701A601481B590B46
:101A60006A0B7B0B8CA19DA1AEA1BFA148175907A2
:101A70006A077B07E8F08C859D85AE85BF852A8146
:101A8000222309F44CC00196A11DB11D8C879D87AE
:101A9000AE87BF874C855D856E857F85CE010E94B0
:101AA000DD04C8A6D9A6EAA6FBA6CE010E941D05A4
:101AB00020E030E0A9016C897D898E899F890E9490
:101AC000A6128111B9CF688979898A899B89CC84CA
:101AD000DD84EE84FF846C157D058E059F0509F07D
:101AE000ABCFE0907002F0907102E701CC0FDD1FE8
:101AF000CC0FDD1FCF55DE4F28EC30E040E050E04A
:101B00000E94C615288339834A835B83C701DF910E
:101B1000CF91FF90EF90DF90CF900C94440A019703
:101B2000A109B109B3CF85ED8093BC008091390242
:101B300090913A02A0913B02B0913C020796A11D00
:101B4000B11D23E0B695A795979587952A95D1F76E
:101B50002091BC0024FD03C01092370208954091EB
:101B6000390250913A0260913B0270913C02452B40
:101B7000462B472B69F30097A105B10541F025E3FA
:101B80002A95F1F700000197A109B109E1CF8091F1
:101B900038020C94B5061F920F920FB60F921124C3
:101BA0002F933F934F935F936F937F938F939F9365
:101BB000AF93BF93EF93FF938AE792E00E94720185
:101BC000FF91EF91BF91AF919F918F917F916F9115
:101BD0005F914F913F912F910F900FBE0F901F90EB
:101BE00018951F920F920FB60F9211242F938F9377
:101BF0009F93EF93FF93E0918A02F0918B02808193
:101C0000E0919002F091910282FD1BC09081809141
:101C100093028F5F8F7320919402821741F0E091BD
:101C20009302F0E0E658FD4F958F80939302FF9169
:101C3000EF919F918F912F910F900FBE0F901F905A
:101C400018958081F4CF1F920F920FB60F92112436
:101C50002F933F938F939F93AF93BF9380916C0289
:101C600090916D02A0916E02B0916F0230915F026F
:101C700023E0230F2D3758F50196A11DB11D2093A8
:101C80005F0280936C0290936D02A0936E02B093FA
:101C90006F028091600290916102A0916202B09106
:101CA00063020196A11DB11D8093600290936102B1
:101CB000A0936202B0936302BF91AF919F918F9105
:101CC0003F912F910F900FBE0F901F90189526E80F
:101CD000230F0296A11DB11DD2CF1F920F920FB6F6
:101CE0000F9211242F933F934F935F936F937F93A2
:101CF0008F939F93AF93BF93EF93FF93E091020174
:101D0000F09103010995FF91EF91BF91AF919F91E0
:101D10008F917F916F915F914F913F912F910F9094
:101D20000FBE0F901F9018951F920F920FB60F9233
:101D300011242F933F934F935F936F937F938F93D0
:101D40009F93AF93BF93EF93FF93E0910001F091C6
:101D500001010995FF91EF91BF91AF919F918F91F3
:101D60007F916F915F914F913F912F910F900FBE97
:101D70000F901F9018951F920F920FB60F9211247B
:101D80002F933F934F935F936F937F938F939F9383
:101D9000AF93BF93EF93FF938091B900887F803614
:101DA00009F44AC0F0F5883209F4A7C018F580316B
:101DB00009F49BC0B8F4882309F4F9C0883009F409
:101DC00094C0FF91EF91BF91AF919F918F917F91BF
:101DD0006F915F914F913F912F910F900FBE0F9098
:101DE0001F901895883109F488C0803251F780938C
:101DF000350214C0803409F49DC040F48033B9F337
:101E00008833F9F68093350285ECB0C0803509F44B
:101E100085C0883509F496C0883499F60E94930DE0
:101E2000D0CF883909F48CC038F5883729F050F4C0
:101E3000883611F0803729F683E0809337021092BC
:101E4000100257C0883809F47BC0803919F08038F7
:101E500009F0B7CF80911002803208F071C0E09194
:101E6000100281E08E0F809310028091BB00F0E0A1
:101E7000E051FE4F80833DC0803B39F0E0F4803A72
:101E800009F479C0883A09F09CCF84E08093370246
:101E90001092EF011092EE01E0916602F09167025C
:101EA00009958091EE0181110FC081E08093EE01D0
:101EB0001092CE0109C0803C09F4A6CF883C09F4F9
:101EC000A3CF883B09F07DCFE091EF0181E08E0F39
:101ED0008093EF01F0E0E253FE4F80818093BB00DE
:101EE0009091EF018091EE0129C0809112028093C0
:101EF000BB0085EC8093BC0064CF9091340280914C
:101F00003302981758F5E091340281E08E0F8093E8
:101F10003402F0E0ED5EFD4F8081E9CFE0913402C4
:101F200081E08E0F809334028091BB00F0E0ED5E83
:101F3000FD4F808390913402809133029817C8F24C
:101F400085E8D8CFE091340281E08E0F809334028F
:101F50008091BB00F0E0ED5EFD4F80838091360202
:101F600081115CCF81E08093110284EA8093BC00F0
:101F70001092370226CF85EC8093BC001092370276
:101F800080911002803230F4E0911002F0E0E051D4
:101F9000FE4F10826091100270E0E0916402F091B7
:101FA000650280EF91E00995109210020ACF10921D
:101FB000350234CFEAE7F2E01382128288EE93E032
:101FC000A0E0B0E084839583A683B78326E331E065
:101FD0003183208325EC30E03587248724EC30E002
:101FE0003787268720EC30E0318B208B21EC30E0E6
:101FF000338B228B22EC30E0358B248B26EC30E0C7
:10200000378B268B118E128E138E148EE7E1F3E040
:102010001382128284839583A683B78388E491E038
:1020200091838083E1E0F4E0138212828AE591E0FB
:102030009183808387E2848380E1818782E0828745
:1020400013864AE069E08DEB93E00E944D0C4CE072
:102050006BE089E793E00E944D0C47E064E085E384
:1020600093E00E944D0C6AE671E083E293E00E94E7
:10207000810B6CE671E089E293E00E94810B6EE6D1
:1020800071E08FE293E00C94810BCF93DF93CDB797
:10209000DEB7C454D1090FB6F894DEBF0FBECDBF72
:1020A000789484B5826084BD84B5816084BD85B533
:1020B000826085BD85B5816085BD80916E0081603F
:1020C00080936E00109281008091810082608093E5
:1020D00081008091810081608093810080918000E7
:1020E0008160809380008091B10084608093B10012
:1020F0008091B00081608093B00080917A0084600C
:1021000080937A0080917A00826080937A00809137
:102110007A00816080937A0080917A008068809351
:102120007A001092C100E0918A02F0918B0282E065
:102130008083E0918602F09187021082E09188020C
:10214000F09189028FEC808310929202E0918E02CE
:10215000F0918F0286E08083E0918C02F0918D02F5
:10216000808180618083E0918C02F0918D0280817A
:1021700088608083E0918C02F0918D02808180687C
:102180008083E0918C02F0918D0280818F7D80832D
:1021900062E082E00E94810262E083E00E948102AC
:1021A00062E085E00E9481028DE890E09093010159
:1021B0008093000180916900836080936900E89AB0
:1021C0008BEB90E090930301809302018091690072
:1021D0008C6080936900E99A61E088E00E94810246
:1021E00060E088E00E94530210926B0210926A0233
:1021F00010926902109268020E94970689EE90E0A0
:1022000090936702809366028AEE90E09093650255
:10221000809364021092060480910B04823018F0BF
:1022200098E0909306048093090462E370E080E0F4
:1022300090E00E94D70260910C0481E094E00E943B
:102240005C0768EE73E080E090E00E94D70260E3F4
:1022500081E094E00E9413090BE416E4C8010197A1
:10226000F1F760E381E094E00E941309C80101974F
:10227000F1F760E381E094E00E94130983E592E0C6
:102280000197F1F760E281E094E00E941309609108
:102290000604606240E081E094E00E942C0984E042
:1022A0008093070440E06CE081E094E00E942C09F8
:1022B0000E947C0982E08093080440E066E081E0AF
:1022C00094E00E942C0940E062E081E094E00E94EA
:1022D0002C098BE39FE10197F1F788E080930C04D0
:1022E00060E081E094E00E945C0760E080E00E9492
:1022F000490960E771E081E094E00E94870961E0AC
:1023000080E00E94490960E871E081E094E00E9469
:10231000870968EB7BE080E090E00E94D7020E9492
:102320007C0980917002909171020E94440A90E0B1
:10233000C92E90E0D92E22E0A22EB12C0091760277
:1023400010917702209178023091790240917202C7
:102350005091730260917402709175020417150711
:102360002607370779F18091700290917102041766
:102370001507260737070CF0A3C00196909371024A
:102380008093700280917002909171028330910568
:102390000CF498C010927102109270024093760271
:1023A0005093770260937802709379028091700263
:1023B000909171020E94440A64E670E080E090E02F
:1023C0000E94D70285E00E942A02892B09F06CC086
:1023D0008FB7F89440906C0250906D0260906E023E
:1023E00070906F028FBF85E00E942A02892BD9F37B
:1023F0002FB7F89480916C0290916D02A0916E02BB
:10240000B0916F022FBF84199509A609B709883EBC
:102410009340A105B10508F05EC0E0907002F09015
:102420007102C7010E94120A8701000F111F0C5F81
:102430001E4F409076025090770260907802709024
:10244000790240917202509173026091740270910E
:1024500075024416550666067706B1F0F8018081CC
:10246000918144165506660677069CF50196918380
:102470008083409376025093770260937802709342
:102480007902C7010E94120A85E00E942A02892B64
:1024900081F685E00E942A02892BD9F3809170028F
:1024A000909171020E94440AC114D10409F446CFEC
:1024B0000E945E01882309F441CF0E9400003ECFB4
:1024C00001975CCF97FF6ACFB0927102A092700221
:1024D00065CF0197CCCF60E971E08AE792E00E9476
:1024E00087096BE971E08AE792E00E948709809191
:1024F0007002909171028130910581F082309105D6
:1025000081F06DEB73E0892B79F6CE0101960E9484
:102510005B08CE0101960E94AB0CC6CF69E773E061
:10252000F4CF65E373E0F1CFCF93DF93C5E3D3E05E
:10253000269788819981009711F00E94A21683E066
:10254000C332D807A9F7DF91CF9108950E94E8120E
:1025500008F481E00895E89409C097FB3EF4909553
:102560008095709561957F4F8F4F9F4F9923A9F06C
:10257000F92F96E9BB279395F695879577956795FB
:10258000B795F111F8CFFAF4BB0F11F460FF1BC03F
:102590006F5F7F4F8F4F9F4F16C0882311F096E9D2
:1025A00011C0772321F09EE8872F762F05C0662380
:1025B00071F096E8862F70E060E02AF09A95660F39
:1025C000771F881FDAF7880F9695879597F90895F2
:1025D000990F0008550FAA0BE0E8FEEF1616170634
:1025E000E807F907C0F012161306E407F50798F09C
:1025F000621B730B840B950B39F40A2661F0232BB5
:10260000242B252B21F408950A2609F4A140A69530
:102610008FEF811D811D08950E941F130C9490134C
:102620000E94821338F00E94891320F0952311F044
:102630000C9479130C947F1311240C94C4130E94EE
:10264000A11370F3959FC1F3950F50E0551F629F42
:10265000F001729FBB27F00DB11D639FAA27F00DFB
:10266000B11DAA1F649F6627B00DA11D661F829F22
:102670002227B00DA11D621F739FB00DA11D621F07
:10268000839FA00D611D221F749F3327A00D611D24
:10269000231F849F600D211D822F762F6A2F112406
:1026A0009F5750409AF0F1F088234AF0EE0FFF1F39
:1026B000BB1F661F771F881F91505040A9F79E3F90
:1026C000510580F00C9479130C94C4135F3FE4F32C
:1026D000983ED4F3869577956795B795F795E795E6
:1026E0009F5FC1F7FE2B880F911D9695879597F9EF
:1026F000089597F99F6780E870E060E008959FEF84
:1027000080EC089500240A94161617061806090688
:10271000089500240A941216130614060506089557
:10272000092E0394000C11F4882352F0BB0F40F4DF
:10273000BF2B11F460FF04C06F5F7F4F8F4F9F4F1F
:10274000089557FD9058440F551F59F05F3F71F0A1
:102750004795880F97FB991F61F09F3F79F0879508
:102760000895121613061406551FF2CF4695F1DF91
:1027700008C0161617061806991FF1CF8695710521
:10278000610508940895E894BB2766277727CB0155
:1027900097F908950E940C14A59F900DB49F900D79
:1027A000A49F800D911D112408952F923F924F9266
:1027B0005F926F927F928F929F92AF92BF92CF92D1
:1027C000DF92EF92FF920F931F93CF93DF93CDB7DA
:1027D000DEB7CA1BDB0B0FB6F894DEBF0FBECDBF52
:1027E00009942A88398848885F846E847D848C8423
:1027F0009B84AA84B984C884DF80EE80FD800C812C
:102800001B81AA81B981CE0FD11D0FB6F894DEBF0E
:102810000FBECDBFED010895A29FB001B39FC001CF
:10282000A39F700D811D1124911DB29F700D811DFC
:102830001124911D08955058BB27AA270E943314D4
:102840000C9490130E94821338F00E94891320F098
:1028500039F49F3F19F426F40C947F130EF4E0959D
:10286000E7FB0C947913E92F0E94A11358F3BA17D0
:10287000620773078407950720F079F4A6F50C9496
:10288000C3130EF4E0950B2EBA2FA02D0B01B90146
:1028900090010C01CA01A0011124FF27591B99F0D6
:1028A000593F50F4503E68F11A16F040A22F232FE2
:1028B000342F4427585FF3CF469537952795A79532
:1028C000F0405395C9F77EF41F16BA0B620B730BD9
:1028D000840BBAF09150A1F0FF0FBB1F661F771F4A
:1028E000881FC2F70EC0BA0F621F731F841F48F4FF
:1028F000879577956795B795F7959E3F08F0B0CF88
:102900009395880F08F09927EE0F9795879508956E
:102910000E949C140C9490130E94891358F00E94FA
:10292000821340F029F45F3F29F00C947913511180
:102930000C94C4130C947F130E94A11368F3992381
:10294000B1F3552391F3951B550BBB27AA276217AB
:102950007307840738F09F5F5F4F220F331F441FB8
:10296000AA1FA9F335D00E2E3AF0E0E832D09150EC
:102970005040E695001CCAF72BD0FE2F29D0660FD9
:10298000771F881FBB1F261737074807AB07B0E81C
:1029900009F0BB0B802DBF01FF2793585F4F3AF022
:1029A0009E3F510578F00C9479130C94C4135F3F4B
:1029B000E4F3983ED4F3869577956795B795F795A8
:1029C0009F5FC9F7880F911D9695879597F9089590
:1029D000E1E0660F771F881FBB1F6217730784072C
:1029E000BA0720F0621B730B840BBA0BEE1F88F73B
:1029F000E09508950E9401156894B1110C94C413D8
:102A000008950E94A91388F09F5798F0B92F99272D
:102A1000B751B0F0E1F0660F771F881F991F1AF0C9
:102A2000BA95C9F714C0B13091F00E94C313B1E058
:102A300008950C94C313672F782F8827B85F39F057
:102A4000B93FCCF3869577956795B395D9F73EF462
:102A500090958095709561957F4F8F4F9F4F08950A
:102A60000E94E81208F48FEF089519F416F40C94FC
:102A70007F130C947B150E94A913B8F39923C9F313
:102A8000B6F39F57550B87FF0E9489150024A0E6D7
:102A900040EA900180585695979528F4805C660F1F
:102AA000771F881F20F026173707480730F4621B6E
:102AB000730B840B202931294A2BA6951794079470
:102AC000202531254A2758F7660F771F881F20F0E9
:102AD00026173707480730F4620B730B840B200D61
:102AE000311D411DA09581F7B901842F9158880FA0
:102AF0009695879508959F3F31F0915020F48795E2
:102B000077956795B795880F911D9695879597F955
:102B1000089591505040660F771F881FD2F708958F
:102B200097FB072E16F4009407D077FD09D00E947A
:102B3000F21507FC05D03EF4909581959F4F0895BE
:102B4000709561957F4F0895A1E21A2EAA1BBB1BB9
:102B5000FD010DC0AA1FBB1FEE1FFF1FA217B30769
:102B6000E407F50720F0A21BB30BE40BF50B661F7F
:102B7000771F881F991F1A9469F760957095809543
:102B800090959B01AC01BD01CF010895052E97FBE7
:102B90001EF400940E94DD1557FD07D00E94A41575
:102BA00007FC03D04EF40C94DD15509540953095FC
:102BB00021953F4F4F4F5F4F0895909580957095A9
:102BC00061957F4F8F4F9F4F0895EE0FFF1F059028
:102BD000F491E02D09940E940C14B7FF0895821B14
:102BE000930B0895AA1BBB1B51E107C0AA1FBB1F73
:102BF000A617B70710F0A61BB70B881F991F5A9589
:102C0000A9F780959095BC01CD0108950F931F936E
:102C1000CF93DF938230910510F482E090E0E09151
:102C20000F04F091100430E020E0B0E0A0E0309715
:102C300099F42115310509F44AC0281B390B2430B9
:102C40003105D8F58A819B816115710589F1FB01F8
:102C500093838283FE0111C04081518102811381DF
:102C600048175907E0F04817590799F4109761F091
:102C700012960C93129713961C933296CF01DF9104
:102C8000CF911F910F91089500930F04109310049A
:102C9000F4CF2115310551F04217530738F0A9013F
:102CA000DB019A01BD01DF01F801C1CFEF01F9CFCE
:102CB0009093100480930F04CDCFFE01E20FF31F19
:102CC000819391932250310939832883D7CF209162
:102CD0000D0430910E04232B41F420910C0130910E
:102CE0000D0130930E0420930D0420910A013091C0
:102CF0000B012115310541F42DB73EB740910E016E
:102D000050910F01241B350BE0910D04F0910E043E
:102D1000E217F307A0F42E1B3F0B2817390778F0B2
:102D2000AC014E5F5F4F2417350748F04E0F5F1F11
:102D300050930E0440930D04819391939FCFF0E044
:102D4000E0E09CCFCF93DF930097E9F0FC0132974E
:102D500013821282A0910F04B0911004ED0130E0B3
:102D600020E01097A1F420813181820F931F2091E0
:102D70000D0430910E042817390709F061C0F09353
:102D80000E04E0930D04DF91CF910895EA01CE1770
:102D9000DF07E8F54A815B819E0141155105B1F7D6
:102DA000E901FB83EA8349915991C40FD51FEC17C0
:102DB000FD0761F4808191810296840F951FE901DE
:102DC00099838883828193819B838A83F0E0E0E00A
:102DD00012968D919C9113970097B9F52D913C9186
:102DE0001197CD010296820F931F20910D0430910F
:102DF0000E042817390739F6309751F51092100450
:102E000010920F04B0930E04A0930D04BCCFD38393
:102E1000C28340815181840F951FC817D90761F47F
:102E20004E5F5F4F88819981480F591F51834083BE
:102E30008A819B81938382832115310509F0B0CF6C
:102E4000F0931004E0930F049ECFFD01DC01C0CF8E
:102E500013821282D7CFB0E0A0E0E1E3F7E10C9457
:102E6000D7138C01009751F4CB010E9406168C01F8
:102E7000C801CDB7DEB7E0E10C94F313FC01E60F17
:102E8000F71F9C0122503109E217F30708F49DC097
:102E9000D901CD91DC911197C617D70798F0C530AD
:102EA000D10530F3CE0104978617970708F3C61BA8
:102EB000D70B2297C193D1936D937C93CF010E943E
:102EC000A216D6CF5B01AC1ABD0A4C018C0E9D1E1A
:102ED000A0910F04B0911004512C412CF12CE12C45
:102EE000109731F580910D0490910E048815990585
:102EF00009F05CC04616570608F058C080910A01D8
:102F000090910B01009741F48DB79EB740910E014F
:102F100050910F01841B950BE817F90708F055C075
:102F2000F0930E04E0930D04F90171836083A0CF48
:102F30008D919C91119712966C90129713967C909C
:102F40001397A815B90559F56C0142E0C40ED11CC0
:102F5000CA14DB0420F1AC014A195B09DA011296AC
:102F6000159780F06282738251834083D9016D93FB
:102F70007C93E114F10471F0D7011396FC93EE9366
:102F8000129776CF22968C0F9D1FF9019183808333
:102F9000F301EFCFF0931004E0930F0469CF4816CC
:102FA000590608F42C017D01D3019ACFCB010E9470
:102FB00006167C01009749F0AE01B8010E94E8179F
:102FC000C8010E94A216870153CF10E000E050CF45
:102FD000FB01DC0102C001900D9241505040D8F736
:102FE0000895FB01DC0101900D920020E1F70895A6
:102FF00010E0C2E6D0E004C0FE010E94E515219673
:0A300000C336D107C9F7F894FFCFDB
:10300A000903090301000200030000001104800003
:10301A000000400014005400000000003E030A03B0
:10302A009F04DD048904570436040204E1038B0378
:10303A005C03000000009401EB002101E101520150
:10304A0030014401000000002D0700074308D6069E
:10305A00F906E606D706000000004309EB0043081C
:10306A006F063E4261636B003E00580059005A00E9
:10307A002A2A204865726F204C697665202A2A0020
:10308A005374657070657220436F6E74726F6C0052
:0E309A006C6F6E67207072657373000D0A0014
:00000001FF
