:100000000C9462000C948A000C948A000C948A0070
:100010000C948A000C948A000C948A000C948A0038
:100020000C948A000C948A000C948A000C948A0028
:100030000C948A000C948A000C948A000C948A0018
:100040000C9417030C948A000C9487030C9461039E
:100050000C948A000C948A000C948A000C948A00F8
:100060000C948A000C948A000000000024002700F1
:100070002A0000000000250028002B0000000000DE
:1000800023002600290004040404040404040202DA
:100090000202020203030303030301020408102007
:1000A0004080010204081020010204081020000012
:1000B0000008000201000003040700000000000027
:1000C0000000B90311241FBECFEFD8E0DEBFCDBFC3
:1000D00011E0A0E0B1E0E4EBFCE002C005900D927D
:1000E000AC32B107D9F721E0ACE2B1E001C01D921A
:1000F000AD3EB207E1F710E0C2E6D0E004C02197C0
:10010000FE010E945206C136D107C9F70E941304AE
:100110000C9458060C940000833081F028F4813050
:1001200099F08230A9F008958730A9F08830C9F09D
:100130008430B1F4809180008F7D03C08091800075
:100140008F7780938000089584B58F7784BD08955C
:1001500084B58F7DFBCF8091B0008F778093B00006
:1001600008958091B0008F7DF9CFCF93DF93282F32
:1001700030E0F901E255FF4F8491F901E656FF4F57
:10018000D491F901EA57FF4FC491CC23A1F081111A
:100190000E948C00EC2FF0E0EE0FFF1FE458FF4FA1
:1001A000A591B491EC91ED2381E090E009F480E019
:1001B000DF91CF91089580E090E0FACF1F93CF9325
:1001C000DF93282F30E0F901E255FF4F8491F901C8
:1001D000E656FF4FD491F901EA57FF4FC491CC2363
:1001E000A9F0162F81110E948C00EC2FF0E0EE0F89
:1001F000FF1FEE58FF4FA591B4918FB7F894EC9183
:10020000111108C0D095DE23DC938FBFDF91CF9111
:100210001F910895DE2BF8CFCF93DF9390E0FC0180
:10022000E656FF4F24918A579F4FFC018491882303
:10023000D1F090E0880F991FFC01E859FF4FA5917C
:10024000B491FC01EE58FF4FC591D491623071F426
:100250009FB7F8943C91822F809583238C93E881FB
:100260002E2B28839FBFDF91CF9108958FB7F894ED
:10027000EC912E2B2C938FBFF6CF3FB7F894809143
:10028000320190913301A0913401B091350126B52E
:10029000A89B05C02F3F19F00196A11DB11D3FBFBE
:1002A000BA2FA92F982F8827BC01CD01620F711D8D
:1002B000811D911D42E0660F771F881F991F4A9587
:1002C000D1F708958F929F92AF92BF92CF92DF9213
:1002D000EF92FF920E943D014B015C0188EEC82E17
:1002E00083E0D82EE12CF12C0E943D016819790998
:1002F0008A099B09683E734081059105A8F321E0B6
:10030000C21AD108E108F10888EE880E83E0981E31
:10031000A11CB11CC114D104E104F10429F7FF9020
:10032000EF90DF90CF90BF90AF909F908F90089507
:10033000AF92BF92CF92DF92EF92FF920F931F93F3
:10034000CF93DF936C017B018B01040F151FEB0131
:100350005E01AE18BF08C017D10759F06991D601E8
:10036000ED91FC910190F081E02DC6010995892B5A
:1003700079F7C501DF91CF911F910F91FF90EF9019
:10038000DF90CF90BF90AF900895FC01538D448DC6
:10039000252F30E0842F90E0821B930B541710F030
:1003A000CF96089501970895FC01918D828D98173D
:1003B00061F0A28DAE0FBF2FB11D5D968C91928D15
:1003C0009F5F9F73928F90E008958FEF9FEF089546
:1003D000FC01918D828D981731F0828DE80FF11D0F
:1003E000858D90E008958FEF9FEF0895FC01918D2A
:1003F000228D892F90E0805C9F4F821B91098F7323
:100400009927089586E391E00E94F60121E0892B67
:1004100009F420E0822F089580E090E0892B29F0F4
:100420000E94020281110C9400000895FC01A48D29
:10043000A80FB92FB11DA35ABF4F2C91848D90E006
:1004400001968F739927848FA689B7892C93A089E9
:10045000B1898C91837080648C93938D848D981373
:1004600006C00288F389E02D80818F7D8083089506
:10047000EF92FF920F931F93CF93DF93EC0181E0F4
:10048000888F9B8D8C8D98131AC0E889F98980819B
:1004900085FF15C09FB7F894EE89FF896083E889CE
:1004A000F98980818370806480839FBF81E090E0C0
:1004B000DF91CF911F910F91FF90EF900895F62E4D
:1004C0000B8D10E00F5F1F4F0F731127E02E8C8DE7
:1004D0008E110CC00FB607FCFACFE889F98980812C
:1004E00085FFF5CFCE010E941602F1CFEB8DEC0F08
:1004F000FD2FF11DE35AFF4FF0829FB7F8940B8F49
:10050000EA89FB8980818062CFCFCF93DF93EC01B2
:10051000888D8823B9F0AA89BB89E889F9898C91EB
:1005200085FD03C0808186FD0DC00FB607FCF7CFA7
:100530008C9185FFF2CF808185FFEDCFCE010E94A7
:100540001602E9CFDF91CF910895FC0101900020C0
:10055000E9F73197AF01481B590BBC0186E391E0E5
:100560000C9498018F929F92AF92BF920F931F931A
:10057000CF93DF93CDB7DEB7A1970FB6F894DEBF68
:100580000FBECDBF19A2423008F44AE08E010F5DC4
:100590001F4F842E912CB12CA12CA50194010E94F7
:1005A0003006E62FB901CA01EA30F4F4E05DD80163
:1005B000EE938D01232B242B252B79F790E080E0FF
:1005C000109719F0CD010E94A502A1960FB6F894DC
:1005D000DEBF0FBECDBFDF91CF911F910F91BF90B6
:1005E000AF909F908F900895E95CE1CFCF92DF921A
:1005F000EF92FF92CF93DF936B017C016DE286E374
:1006000091E00E943802EC0166277727CB016C1934
:100610007D098E099F094AE00E94B2028C0F9D1F3E
:10062000DF91CF91FF90EF90DF90CF9008951F92D0
:100630000F920FB60F9211242F933F938F939F9396
:10064000AF93BF9380912E0190912F01A091300123
:10065000B091310130912D0123E0230F2D3758F552
:100660000196A11DB11D20932D0180932E01909321
:100670002F01A0933001B09331018091320190910C
:100680003301A0913401B09135010196A11DB11D36
:100690008093320190933301A0933401B0933501DC
:1006A000BF91AF919F918F913F912F910F900FBE6E
:1006B0000F901F90189526E8230F0296A11DB11DDB
:1006C000D2CF1F920F920FB60F9211242F933F9308
:1006D0004F935F936F937F938F939F93AF93BF934A
:1006E000EF93FF9386E391E00E941602FF91EF9152
:1006F000BF91AF919F918F917F916F915F914F913A
:100700003F912F910F900FBE0F901F9018951F9241
:100710000F920FB60F9211242F938F939F93EF9305
:10072000FF93E0914601F09147018081E0914C01F7
:10073000F0914D0182FD1BC0908180914F018F5F30
:100740008F7320915001821741F0E0914F01F0E04A
:10075000EA5CFE4F958F80934F01FF91EF919F913F
:100760008F912F910F900FBE0F901F901895808141
:10077000F4CFCF93DF93E6E3F1E01382128288EEA9
:1007800093E0A0E0B0E084839583A683B78384E000
:1007900091E09183808385EC90E09587848784EC59
:1007A00090E09787868780EC90E0918B808B81EC3E
:1007B00090E0938B828B82EC90E0958B848B86EC1F
:1007C00090E0978B868B118E128E138E148EC3ED54
:1007D000D1E082E090E09983888385E090E09B837C
:1007E0008A831C821D821E821F82188619861A86A1
:1007F0001B861C861D861E861B8A1C8A1D8A1E8AD5
:100800001F8A188E198E0E943D016F87788B898B05
:100810009A8B61E088810E940C0161E08A81DF91FE
:10082000CF910C940C01789484B5826084BD84B51A
:10083000816084BD85B5826085BD85B5816085BDDB
:1008400080916E00816080936E0010928100809193
:10085000810082608093810080918100816080931B
:100860008100809180008160809380008091B10040
:1008700084608093B1008091B00081608093B0006B
:1008800080917A00846080937A0080917A008260FF
:1008900080937A0080917A00816080937A008091C1
:1008A0007A00806880937A001092C100E09146013E
:1008B000F091470182E08083E0914201F091430191
:1008C0001082E0914401F09145018FEC80831092F9
:1008D0004E01E0914A01F0914B0186E08083E09166
:1008E0004801F0914901808180618083E091480155
:1008F000F0914901808188608083E0914801F09106
:100900004901808180688083E0914801F09149012C
:1009100080818F7D808362E08AE00E940C0162E02A
:1009200089E00E940C010E946201D1E000E010E029
:10093000C1E0C12CD12C8AE7E82E84E4F82E77247C
:1009400073949BEA892E9AEA992E96E2A92E93E453
:10095000B92E8AE00E94B500892B11F4C0932C01B6
:1009600080912C01882309F401C18091E00181115B
:1009700016C08092E6019092E701A092E801B09241
:10098000E9011092EB0162E089E00E940C016091A4
:10099000EB018091D5010E94DE001092DF010E94E0
:1009A0003D012091E2013091E3014091E401509139
:1009B000E501621B730B840B950B0E94CA05209105
:1009C000E6013091E7014091E8015091E9010E9470
:1009D000070687FD2EC08091EA018D278093EA01EA
:1009E0000E943D016093E2017093E3018093E40172
:1009F0009093E5016091EA018091D3010E94DE00AD
:100A0000C093E0018091EA01811113C08091D70168
:100A10009091D801A091D901B091DA010197A10973
:100A2000B1098093D7019093D801A093D901B093D5
:100A3000DA0189E00E94B500892B09F07DC00E948F
:100A40006201C092E601D092E701E092E801F092E3
:100A5000E901C093EB0161E08091D5010E94DE00C5
:100A600089E00E94B500892B09F04BC00E943D012E
:100A70002091E2013091E3014091E4015091E501C0
:100A8000621B730B840B950B0E94CA052091E60133
:100A90003091E7014091E8015091E9010E94070679
:100AA00087FDDECF8091EA018D278093EA010E94C5
:100AB0003D016093E2017093E3018093E401909320
:100AC000E5016091EA018091D3010E94DE007092FD
:100AD000E0018091EA018111C3CF8091D70190910B
:100AE000D801A091D901B091DA010196A11DB11DE3
:100AF0008093D7019093D801A093D901B093DA01E4
:100B0000AFCF89E00E94B500BC01990F880B990B0B
:100B100097FF38C00E94F60282E191E00E94A50290
:100B20001092E001C093DF011092D7011092D8011A
:100B30001092D9011092DA018091DF018823B1F07F
:100B400010922C0185E191E00E94A5026091D701ED
:100B50007091D8018091D9019091DA0197FF16C068
:100B60000E94F60282E191E00E94A50201151105A2
:100B700009F4EFCE0E940202882309F4EACE0E9413
:100B80000000E7CE4AE00E94B202C6CF4AE00E94CF
:100B9000B202E8CFE89409C097FB3EF490958095A7
:100BA000709561957F4F8F4F9F4F9923A9F0F92F33
:100BB00096E9BB279395F695879577956795B795B1
:100BC000F111F8CFFAF4BB0F11F460FF1BC06F5F97
:100BD0007F4F8F4F9F4F16C0882311F096E911C0A9
:100BE000772321F09EE8872F762F05C0662371F0CA
:100BF00096E8862F70E060E02AF09A95660F771FDE
:100C0000881FDAF7880F9695879597F908950E94BF
:100C10000C0608F48FEF0895990F0008550FAA0BE2
:100C2000E0E8FEEF16161706E807F907C0F01216FF
:100C30001306E407F50798F0621B730B840B950B02
:100C400039F40A2661F0232B242B252B21F4089557
:100C50000A2609F4A140A6958FEF811D811D0895F4
:100C6000A1E21A2EAA1BBB1BFD010DC0AA1FBB1FB0
:100C7000EE1FFF1FA217B307E407F50720F0A21B22
:100C8000B30BE40BF50B661F771F881F991F1A948F
:100C900069F760957095809590959B01AC01BD01B9
:100CA000CF010895EE0FFF1F0590F491E02D0994F8
:040CB000F894FFCFE6
:100CB4000000000038029801C5018502F601D40144
:100CC400E8010D0A00436F6D6520686F6D65202D86
:0C0CD40020506F736974696F6E3A200045
:00000001FF
