:100000000C945D000C947A000C947A000C947A00A5
:100010000C947A000C947A000C947A000C947A0078
:100020000C947A000C947A000C947A000C947A0068
:100030000C947A000C947A000C947A000C947A0058
:100040000C940C010C947A000C947A000C947A00B5
:100050000C947A000C947A000C947A000C947A0038
:100060000C947A000C947A00000000080002010051
:100070000003040700000000000000000000000072
:10008000250028002B0000000000240027002A0083
:10009000040404040404040402020202020203032E
:1000A0000303030301020408102040800102040836
:1000B00010200102040810201D0211241FBECFEFE2
:1000C000D8E0DEBFCDBF21E0A0E0B1E001C01D92CD
:1000D000A831B207E1F710E0CDE5D0E004C02197E8
:1000E000FE010E94A402CC35D107C9F70E94560137
:1000F0000C94AA020C94000090E0FC01EC55FF4F18
:10010000249180579F4FFC018491882399F090E0BF
:10011000880F991FFC01EA57FF4FA591B491FC018C
:10012000E458FF4F859194918FB7F894EC91E22BAE
:10013000EC938FBF089590E0FC01E859FF4F2491A4
:10014000FC01EC55FF4F3491FC01E057FF4FE49167
:10015000EE23C9F0222339F0233001F1A8F4213035
:1001600019F1223029F1F0E0EE0FFF1FE458FF4FA4
:10017000A591B4918FB7F894EC91611126C0309598
:100180003E233C938FBF08952730A9F02830C9F053
:10019000243049F7809180008F7D03C080918000DA
:1001A0008F7780938000DFCF84B58F7784BDDBCFDE
:1001B00084B58F7DFBCF8091B0008F778093B000A6
:1001C000D2CF8091B0008F7DF9CF3E2BDACF3FB7F1
:1001D000F8948091140190911501A0911601B091AD
:1001E000170126B5A89B05C02F3F19F00196A11D48
:1001F000B11D3FBFBA2FA92F982F8827BC01CD0171
:10020000620F711D811D911D42E0660F771F881FCF
:10021000991F4A95D1F708951F920F920FB60F922A
:1002200011242F933F938F939F93AF93BF9380910C
:10023000100190911101A0911201B0911301309120
:100240000F0123E0230F2D3758F50196A11DB11D95
:1002500020930F018093100190931101A09312013C
:10026000B09313018091140190911501A091160192
:10027000B09117010196A11DB11D809314019093B7
:100280001501A0931601B0931701BF91AF919F91F3
:100290008F913F912F910F900FBE0F901F90189547
:1002A00026E8230F0296A11DB11DD2CF789484B504
:1002B000826084BD84B5816084BD85B5826085BD62
:1002C00085B5816085BD80916E00816080936E00F0
:1002D00010928100809181008260809381008091E2
:1002E0008100816080938100809180008160809393
:1002F00080008091B10084608093B1008091B00053
:1003000081608093B00080917A00846080937A004D
:1003100080917A00826080937A0080917A00816077
:1003200080937A0080917A00806880937A0010929E
:10033000C1000E94E7006B017C0188E8882E83E100
:10034000982EA12CB12C0E94E7006C197D098E0912
:100350009F09683E734081059105A8F321E0821A48
:100360009108A108B10888EEC80E83E0D81EE11CF0
:10037000F11C81149104A104B10429F711E0C0E03B
:10038000D0E08091040190910501A0910601B09107
:1003900007010A97A105B10509F449C00E94E700C9
:1003A000C0900A01D0900B01E0900C01F0900D017B
:1003B0006C197D098E099F090E943E0220E030E4FD
:1003C0004CE955E40E947B0287FD31C080910E010B
:1003D000812780930E010E94E70060930A017093C9
:1003E0000B0180930C0190930D0160910E0180919F
:1003F00000010E949B0061E0809102010E949B002D
:1004000080910E01811113C080910401909105012A
:10041000A0910601B09107010196A11DB11D809325
:10042000040190930501A0930601B0930701209762
:1004300009F4A7CF0E940000A4CFCF93DF93C0E0C0
:10044000D1E083E090E09983888386E090E09B830D
:100450008A831C821D821E821F82188619861E8630
:100460000E94E7006A877B878C879D8788810E942E
:100470007C008A81DF91CF910C947C00E89409C0C4
:1004800097FB3EF490958095709561957F4F8F4FC7
:100490009F4F9923A9F0F92F96E9BB279395F695DD
:1004A000879577956795B795F111F8CFFAF4BB0F5B
:1004B00011F460FF1BC06F5F7F4F8F4F9F4F16C0BF
:1004C000882311F096E911C0772321F09EE8872F49
:1004D000762F05C0662371F096E8862F70E060E005
:1004E0002AF09A95660F771F881FDAF7880F96957E
:1004F000879597F908950E94800208F48FEF089578
:10050000990F0008550FAA0BE0E8FEEF1616170624
:10051000E807F907C0F012161306E407F50798F08C
:10052000621B730B840B950B39F40A2661F0232BA5
:10053000242B252B21F408950A2609F4A140A69521
:100540008FEF811D811D0895EE0FFF1F0590F4911F
:08055000E02D0994F894FFCF9F
:00000001FF
