:100000000C945D000C9485000C9485000C94850084
:100010000C9485000C9485000C9485000C9485004C
:100020000C9485000C9485000C9485000C9485003C
:100030000C9485000C9485000C9485000C9485002C
:100040000C94A8020C9485000C9418030C94F202F2
:100050000C9485000C9485000C9485000C9485000C
:100060000C9485000C9485000000000024002700FB
:100070002A0000000000250028002B0004040404CE
:100080000404040402020202020203030303030342
:10009000010204081020408001020408102001021F
:1000A00004081020000000080002010000030407FB
:1000B00000000000000000004A0311241FBECFEF23
:1000C000D8E0DEBFCDBF11E0A0E0B1E0E8E4FCE0A5
:1000D00002C005900D92AE31B107D9F721E0AEE133
:1000E000B1E001C01D92A53FB207E1F710E0CDE5F8
:1000F000D0E004C02197FE010E941C06CC35D10738
:10010000C9F70E94D6030C9422060C94000090E0DC
:10011000FC01EC55FF4F2491FC01E057FF4F349157
:10012000FC01E458FF4FE491EE23C9F0222339F09B
:10013000233001F1A8F4213019F1223029F1F0E047
:10014000EE0FFF1FEE58FF4FA591B4918FB7F894B3
:10015000EC91611126C030953E233C938FBF0895EA
:100160002730A9F02830C9F0243049F78091800069
:100170008F7D03C0809180008F7780938000DFCFD8
:1001800084B58F7784BDDBCF84B58F7DFBCF809125
:10019000B0008F778093B000D2CF8091B0008F7D78
:1001A000F9CF3E2BDACFCF93DF9390E0FC01E057FD
:1001B000FF4F249184589F4FFC0184918823D1F0F4
:1001C00090E0880F991FFC01E859FF4FA591B49169
:1001D000FC01EE58FF4FC591D491623071F49FB786
:1001E000F8943C91822F809583238C93E8812E2B69
:1001F00028839FBFDF91CF9108958FB7F894EC913A
:100200002E2B2C938FBFF6CF3FB7F894809124010B
:1002100090912501A0912601B091270126B5A89BB8
:1002200005C02F3F19F00196A11DB11D3FBFBA2F88
:10023000A92F982F8827BC01CD01620F711D811D48
:10024000911D42E0660F771F881F991F4A95D1F7CD
:100250000895AF92BF92CF92DF92EF92FF920F93E9
:100260001F93CF93DF936C017B018B01040F151F4C
:10027000EB015E01AE18BF08C017D10759F06991B4
:10028000D601ED91FC910190F081E02DC601099518
:10029000892B79F7C501DF91CF911F910F91FF90C5
:1002A000EF90DF90CF90BF90AF900895FC01538DF9
:1002B000448D252F30E0842F90E0821B930B541740
:1002C00010F0CF96089501970895FC01918D828DCD
:1002D000981761F0A28DAE0FBF2FB11D5D968C9166
:1002E000928D9F5F9F73928F90E008958FEF9FEFA5
:1002F0000895FC01918D828D981731F0828DE80F61
:10030000F11D858D90E008958FEF9FEF0895FC011A
:10031000918D228D892F90E0805C9F4F821B9109E7
:100320008F739927089588E291E00E94870121E068
:10033000892B09F420E0822F089580E090E0892B3A
:1003400029F00E94930181110C9400000895FC0192
:10035000A48DA80FB92FB11DA35ABF4F2C91848D26
:1003600090E001968F739927848FA689B7892C9383
:10037000A089B1898C91837080648C93938D848DD6
:10038000981306C00288F389E02D80818F7D8083D9
:100390000895EF92FF920F931F93CF93DF93EC0199
:1003A00081E0888F9B8D8C8D98131AC0E889F9891C
:1003B000808185FF15C09FB7F894EE89FF8960831F
:1003C000E889F98980818370806480839FBF81E0A0
:1003D00090E0DF91CF911F910F91FF90EF900895E2
:1003E000F62E0B8D10E00F5F1F4F0F731127E02EBD
:1003F0008C8D8E110CC00FB607FCFACFE889F989F5
:10040000808185FFF5CFCE010E94A701F1CFEB8D52
:10041000EC0FFD2FF11DE35AFF4FF0829FB7F894C8
:100420000B8FEA89FB8980818062CFCFCF93DF93E6
:10043000EC01888D8823B9F0AA89BB89E889F989FC
:100440008C9185FD03C0808186FD0DC00FB607FC31
:10045000F7CF8C9185FFF2CF808185FFEDCFCE0164
:100460000E94A701E9CFDF91CF910895FC0101908F
:100470000020E9F73197AF01481B590BBC0188E216
:1004800091E00C9429018F929F92AF92BF920F93AB
:100490001F93CF93DF93CDB7DEB7A1970FB6F89434
:1004A000DEBF0FBECDBF19A2423008F44AE08E0174
:1004B0000F5D1F4F842E912CB12CA12CA50194010E
:1004C0000E94FA05E62FB901CA01EA30F4F4E05DB2
:1004D000D801EE938D01232B242B252B79F790E067
:1004E00080E0109719F0CD010E943602A1960FB658
:1004F000F894DEBF0FBECDBFDF91CF911F910F915A
:10050000BF90AF909F908F900895E95CE1CFCF921C
:10051000DF92EF92FF92CF93DF936B017C016DE24C
:1005200088E291E00E94C901EC0166277727CB01A0
:100530006C197D098E099F094AE00E9443028C0FC5
:100540009D1FDF91CF91FF90EF90DF90CF900895A6
:100550001F920F920FB60F9211242F933F938F93F8
:100560009F93AF93BF938091C5019091C601A091D5
:10057000C701B091C8013091230123E0230F2D372B
:1005800058F50196A11DB11D209323018093C5014B
:100590009093C601A093C701B093C8018091240134
:1005A00090912501A0912601B09127010196A11DEE
:1005B000B11D8093240190932501A0932601B0934F
:1005C0002701BF91AF919F918F913F912F910F90F4
:1005D0000FBE0F901F90189526E8230F0296A11DBD
:1005E000B11DD2CF1F920F920FB60F9211242F93ED
:1005F0003F934F935F936F937F938F939F93AF93AB
:10060000BF93EF93FF9388E291E00E94A701FF91CF
:10061000EF91BF91AF919F918F917F916F915F917A
:100620004F913F912F910F900FBE0F901F901895F3
:100630001F920F920FB60F9211242F938F939F93B7
:10064000EF93FF93E0913801F09139018081E091BF
:100650003E01F0913F0182FD1BC0908180914101DC
:100660008F5F8F7320914201821741F0E091410129
:10067000F0E0E85DFE4F958F80934101FF91EF918F
:100680009F918F912F910F900FBE0F901F901895F3
:100690008081F4CFCF93DF93E8E2F1E013821282FE
:1006A00088EE93E0A0E0B0E084839583A683B783CF
:1006B00084E091E09183808385EC90E09587848746
:1006C00084EC90E09787868780EC90E0918B808B1C
:1006D00081EC90E0938B828B82EC90E0958B848B05
:1006E00086EC90E0978B868B118E128E138E148E73
:1006F000C1EED1E082E090E09983888385E090E0CC
:100700009B838A831C821D821E821F821886198603
:100710001A861B861C861D861E861B8A0E94040163
:100720006F87788B898B9A8B61E088810E94D300D8
:1007300061E08A810E94D300CDECD1E083E090E0BB
:10074000998388838DE090E09B838A831C821D823D
:100750001E821F82188619861A861B861C861D8695
:100760001E861B8A0E9404016F87788B898B9A8B67
:1007700061E088810E94D30061E08A810E94D300F9
:100780002FB7F8948091C5019091C601A091C7013F
:10079000B091C8012FBF8093C9019093CA01A09363
:1007A000CB01B093CC01DF91CF910895789484B5BB
:1007B000826084BD84B5816084BD85B5826085BD5D
:1007C00085B5816085BD80916E00816080936E00EB
:1007D00010928100809181008260809381008091DD
:1007E000810081608093810080918000816080938E
:1007F00080008091B10084608093B1008091B0004E
:1008000081608093B00080917A00846080937A0048
:1008100080917A00826080937A0080917A00816072
:1008200080937A0080917A00806880937A00109299
:10083000C100E0913801F091390182E08083E091BC
:100840003401F09135011082E0913601F0913701C9
:1008500080E1808310924001E0913C01F0913D01E4
:1008600086E08083E0913A01F0913B0180818061D4
:100870008083E0913A01F0913B0180818860808320
:10088000E0913A01F0913B01808180688083E091A2
:100890003A01F0913B0180818F7D808362E08CE0A2
:1008A0000E94D3000E9404014B015C0198EEC92E06
:1008B00093E0D92EE12CF12C0E94040168197909EA
:1008C0008A099B09683E734081059105A8F321E0E0
:1008D000C21AD108E108F10888EE880E83E0981E5C
:1008E000A11CB11CC114D104E104F10429F701E0F9
:1008F000C0E0D0E011E02FB7F8948091C50190914D
:10090000C601A091C701B091C8012FBF4091C90194
:100910005091CA016091CB017091CC01841B950B61
:10092000A60BB70B883E9340A105B10508F441C062
:100930002FB7F8948091C5019091C601A091C7018D
:10094000B091C8012FBF8093C9019093CA01A093B1
:10095000CB01B093CC011093220180911E019091A4
:100960001F01A0912001B0912101892B8A2B8B2B93
:1009700009F45DC080E090E0DC0180931E0190935B
:100980001F01A0932001B093210182E191E00E9418
:10099000360260911E0170911F018091200190919B
:1009A000210197FF49C00E9487028BE191E00E94DC
:1009B000360280912201882379F1C0901E01D090E7
:1009C0001F01E0902001F09021018091D1019091D0
:1009D000D201A091D301B091D401C816D906EA067C
:1009E000FB0671F51093D9011092DA018091D901BB
:1009F000882391F0109222016091D1017091D2016F
:100A00008091D3019091D40197FF8AC00E94870200
:100A10008BE191E00E943602209709F46CCF0E948E
:100A20009301882309F467CF0E94000064CF84EF0C
:100A300091E0A0E0B0E0A1CF4AE00E944302B5CF30
:100A40001092D9010E9404018090DC019090DD0198
:100A5000A090DE01B090DF01681979098A099B092D
:100A60000E94940520E030E048E452E40E94D10561
:100A700087FDBCCF8091D1019091D201A091D3018B
:100A8000B091D40146015701881A990AAA0ABB0AF3
:100A900080949094A094B0948824B7FC8394992473
:100AA000AA24BB248091E00180278093E0010E946A
:100AB00004016093DC017093DD018093DE0190936B
:100AC000DF016091E0018091CD010E948700682DD7
:100AD0008091CF010E9487001093DA018091E0019C
:100AE000811184CF8091D1019091D201A091D30145
:100AF000B091D401C81AD90AEA0AFB0AF7FE0CC061
:100B00000197A109B1098093D1019093D201A093DB
:100B1000D301B093D4016ACF0196A11DB11DF3CFCB
:100B20004AE00E94430274CFE89409C097FB3EF468
:100B300090958095709561957F4F8F4F9F4F99232A
:100B4000A9F0F92F96E9BB279395F69587957795A8
:100B50006795B795F111F8CFFAF4BB0F11F460FF68
:100B60001BC06F5F7F4F8F4F9F4F16C0882311F0C0
:100B700096E911C0772321F09EE8872F762F05C0D4
:100B8000662371F096E8862F70E060E02AF09A956F
:100B9000660F771F881FDAF7880F9695879597F964
:100BA00008950E94D60508F48FEF0895990F000864
:100BB000550FAA0BE0E8FEEF16161706E807F9072F
:100BC000C0F012161306E407F50798F0621B730BCA
:100BD000840B950B39F40A2661F0232B242B252B4B
:100BE00021F408950A2609F4A140A6958FEF811DEE
:100BF000811D0895A1E21A2EAA1BBB1BFD010DC089
:100C0000AA1FBB1FEE1FFF1FA217B307E407F507BC
:100C100020F0A21BB30BE40BF50B661F771F881F98
:100C2000991F1A9469F760957095809590959B012E
:100C3000AC01BD01CF010895EE0FFF1F0590F491A7
:080C4000E02D0994F894FFCFA8
:100C480000000000C901290156011602870165014B
:0E0C580079015461726765743A20000D0A003C
:00000001FF
