:100000000C945D000C9485000C9485000C94850084
:100010000C9485000C9485000C9485000C9485004C
:100020000C9485000C9485000C9485000C9485003C
:100030000C9485000C9485000C9485000C9485002C
:100040000C9436020C9485000C94A6020C94800249
:100050000C9485000C9485000C9485000C9485000C
:100060000C9485000C9485000000000024002700FB
:100070002A0000000000250028002B0004040404CE
:100080000404040402020202020203030303030342
:10009000010204081020408001020408102001021F
:1000A00004081020000000080002010000030407FB
:1000B0000000000000000000D80211241FBECFEF96
:1000C000D8E0DEBFCDBF11E0A0E0B1E0E0E5FAE0AE
:1000D00002C005900D92A231B107D9F721E0A2E14B
:1000E000B1E001C01D92A53EB207E1F710E0CDE5F9
:1000F000D0E004C02197FE010E942005CC35D10735
:10010000C9F70E9464030C9426050C94000090E04B
:10011000FC01EC55FF4F2491FC01E057FF4F349157
:10012000FC01E458FF4FE491EE23C9F0222339F09B
:10013000233001F1A8F4213019F1223029F1F0E047
:10014000EE0FFF1FEE58FF4FA591B4918FB7F894B3
:10015000EC91611126C030953E233C938FBF0895EA
:100160002730A9F02830C9F0243049F78091800069
:100170008F7D03C0809180008F7780938000DFCFD8
:1001800084B58F7784BDDBCF84B58F7DFBCF809125
:10019000B0008F778093B000D2CF8091B0008F7D78
:1001A000F9CF3E2BDACFCF93DF9390E0FC01E057FD
:1001B000FF4F249184589F4FFC0184918823D1F0F4
:1001C00090E0880F991FFC01E859FF4FA591B49169
:1001D000FC01EE58FF4FC591D491623071F49FB786
:1001E000F8943C91822F809583238C93E8812E2B69
:1001F00028839FBFDF91CF9108958FB7F894EC913A
:100200002E2B2C938FBFF6CF3FB7F894809114011B
:1002100090911501A0911601B091170126B5A89BE8
:1002200005C02F3F19F00196A11DB11D3FBFBA2F88
:10023000A92F982F8827BC01CD01620F711D811D48
:10024000911D42E0660F771F881F991F4A95D1F7CD
:100250000895AF92BF92CF92DF92EF92FF920F93E9
:100260001F93CF93DF936C017B018B01040F151F4C
:10027000EB015E01AE18BF08C017D10759F06991B4
:10028000D601ED91FC910190F081E02DC601099518
:10029000892B79F7C501DF91CF911F910F91FF90C5
:1002A000EF90DF90CF90BF90AF900895FC01538DF9
:1002B000448D252F30E0842F90E0821B930B541740
:1002C00010F0CF96089501970895FC01918D828DCD
:1002D000981761F0A28DAE0FBF2FB11D5D968C9166
:1002E000928D9F5F9F73928F90E008958FEF9FEFA5
:1002F0000895FC01918D828D981731F0828DE80F61
:10030000F11D858D90E008958FEF9FEF0895FC011A
:10031000918D228D892F90E0805C9F4F821B9109E7
:100320008F739927089588E191E00E94870121E069
:10033000892B09F420E0822F089580E090E0892B3A
:1003400029F00E94930181110C9400000895FC0192
:10035000A48DA80FB92FB11DA35ABF4F2C91848D26
:1003600090E001968F739927848FA689B7892C9383
:10037000A089B1898C91837080648C93938D848DD6
:10038000981306C00288F389E02D80818F7D8083D9
:100390000895EF92FF920F931F93CF93DF93EC0199
:1003A00081E0888F9B8D8C8D98131AC0E889F9891C
:1003B000808185FF15C09FB7F894EE89FF8960831F
:1003C000E889F98980818370806480839FBF81E0A0
:1003D00090E0DF91CF911F910F91FF90EF900895E2
:1003E000F62E0B8D10E00F5F1F4F0F731127E02EBD
:1003F0008C8D8E110CC00FB607FCFACFE889F989F5
:10040000808185FFF5CFCE010E94A701F1CFEB8D52
:10041000EC0FFD2FF11DE35AFF4FF0829FB7F894C8
:100420000B8FEA89FB8980818062CFCFCF93DF93E6
:10043000EC01888D8823B9F0AA89BB89E889F989FC
:100440008C9185FD03C0808186FD0DC00FB607FC31
:10045000F7CF8C9185FFF2CF808185FFEDCFCE0164
:100460000E94A701E9CFDF91CF9108951F920F92CB
:100470000FB60F9211242F933F938F939F93AF93B7
:10048000BF938091B5019091B601A091B701B09151
:10049000B8013091130123E0230F2D3758F5019651
:1004A000A11DB11D209313018093B5019093B60156
:1004B000A093B701B093B8018091140190911501F8
:1004C000A0911601B09117010196A11DB11D809355
:1004D000140190931501A0931601B0931701BF91D9
:1004E000AF919F918F913F912F910F900FBE0F90E1
:1004F0001F90189526E8230F0296A11DB11DD2CF9B
:100500001F920F920FB60F9211242F933F934F9388
:100510005F936F937F938F939F93AF93BF93EF936B
:10052000FF9388E191E00E94A701FF91EF91BF91B5
:10053000AF919F918F917F916F915F914F913F917B
:100540002F910F900FBE0F901F9018951F920F9232
:100550000FB60F9211242F938F939F93EF93FF93D6
:10056000E0912801F09129018081E0912E01F09124
:100570002F0182FD1BC09081809131018F5F8F73AD
:1005800020913201821741F0E0913101F0E0E85E04
:10059000FE4F958F80933101FF91EF919F918F9145
:1005A0002F910F900FBE0F901F9018958081F4CF60
:1005B000CF93DF93E8E1F1E01382128288EE93E0BB
:1005C000A0E0B0E084839583A683B78384E091E0C4
:1005D0009183808385EC90E09587848784EC90E01C
:1005E0009787868780EC90E0918B808B81EC90E000
:1005F000938B828B82EC90E0958B848B86EC90E0E1
:10060000978B868B118E128E138E148EC1EDD1E0D6
:1006100082E090E09983888385E090E09B838A83E1
:100620001C821D821E821F82188619861A861B86CE
:100630001C861D861E861B8A0E9404016F87788B8C
:10064000898B9A8B61E088810E94D30061E08A8166
:100650000E94D300CDEBD1E083E090E099838883C2
:1006600086E090E09B838A831C821D821E821F820B
:10067000188619861A861B861C861D861E861B8A6E
:100680000E9404016F87788B898B9A8B61E0888147
:100690000E94D30061E08A810E94D3002FB7F894B2
:1006A0008091B5019091B601A091B701B091B801C8
:1006B0002FBF8093B9019093BA01A093BB01B0936F
:1006C000BC01DF91CF910895789484B5826084BD98
:1006D00084B5816084BD85B5826085BD85B5816046
:1006E00085BD80916E00816080936E0010928100C4
:1006F000809181008260809381008091810081607F
:10070000809381008091800081608093800080913F
:10071000B10084608093B1008091B00081608093CB
:10072000B00080917A00846080937A0080917A0092
:10073000826080937A0080917A00816080937A0051
:1007400080917A00806880937A001092C100E091D5
:100750002801F091290182E08083E0912401F09149
:1007600025011082E0912601F091270180E180832C
:1007700010923001E0912C01F0912D0186E08083F0
:10078000E0912A01F0912B01808180618083E091CA
:100790002A01F0912B01808188608083E0912A01F9
:1007A000F0912B01808180688083E0912A01F09193
:1007B0002B0180818F7D808362E08DE00E94D300D9
:1007C0000E9404014B015C0188EEC82E83E0D82E04
:1007D000E12CF12C0E940401681979098A099B090E
:1007E000683E734081059105A8F321E0C21AD10843
:1007F000E108F10888EE880E83E0981EA11CB11C68
:10080000C114D104E104F10429F7D1E000E010E0C3
:10081000C1E02FB7F8948091B5019091B601A091F5
:10082000B701B091B8012FBF4091B9015091BA0101
:100830006091BB017091BC01841B950BA60BB70B9B
:1008400088389341A105B105A9F42FB7F894809198
:10085000B5019091B601A091B701B091B8012FBF39
:100860008093B9019093BA01A093BB01B093BC01EE
:10087000C093120180911201882311F18091CA0165
:10088000811108C01092C5011092C6011092C701D3
:100890001092C8018091C5019091C601A091C70135
:1008A000B091C80184369105A105B105A9F4C093A2
:1008B000C9011092CA018091C901811110921201DF
:1008C0000115110509F4A5CF0E949301882309F4AD
:1008D000A0CF0E9400009DCF1092C9010E94040188
:1008E000C090CC01D090CD01E090CE01F090CF012E
:1008F0006C197D098E099F090E94BA0420E030E03E
:100900004AEF53E40E94F70487FDD5CF8091D001D0
:100910008D278093D0010E9404016093CC017093D5
:10092000CD018093CE019093CF016091D001809151
:10093000BD010E94870061E08091BF010E94870095
:10094000C093CA018091D0018111B5CF8091C501BA
:100950009091C601A091C701B091C8010196A11D57
:10096000B11D8093C5019093C601A093C701B093B8
:10097000C801A1CFE89409C097FB3EF490958095FB
:10098000709561957F4F8F4F9F4F9923A9F0F92F55
:1009900096E9BB279395F695879577956795B795D3
:1009A000F111F8CFFAF4BB0F11F460FF1BC06F5FB9
:1009B0007F4F8F4F9F4F16C0882311F096E911C0CB
:1009C000772321F09EE8872F762F05C0662371F0EC
:1009D00096E8862F70E060E02AF09A95660F771F00
:1009E000881FDAF7880F9695879597F908950E94E2
:1009F000FC0408F48FEF0895990F0008550FAA0B17
:100A0000E0E8FEEF16161706E807F907C0F0121621
:100A10001306E407F50798F0621B730B840B950B24
:100A200039F40A2661F0232B242B252B21F4089579
:100A30000A2609F4A140A6958FEF811D811D089516
:100A4000EE0FFF1F0590F491E02D0994F894FFCF6D
:100A500000000000C9012901560116028701650145
:020A600079011A
:00000001FF
